:100000000C9453010C9484010C9484010C9484018D
:100010000C9484010C9484010C9484010C9484014C
:100020000C9484010C942B0D0C94530D0C947B0DAB
:100030000C9484010C9484010C9484010C9484012C
:100040000C9484010C9484010C9484010C9484011C
:100050000C9484010C9484010C9484010C94A30DE1
:100060000C9484010C942B110C9461110C94840158
:100070000C9484010C9484010C9484010C948401EC
:100080000C9484010C9484010C9484010C948401DC
:100090000C9484010C9484010C9484010C948401CC
:1000A0000C9484010C9484010C9484010C948401BC
:1000B0000C9484010C9484010C9484010C948401AC
:1000C0000C9484010C9484010C9484010C9484019C
:1000D0000C9484010C9484010C94D8110C940E128D
:1000E0000C948401E40EE70ED60EDA0EE00E1E0F1D
:1000F000EB0EEF0EF50EF90EFD0E030F070F0B0FB3
:100100001E0F110F150F190F0C940B0F0C94E40F09
:100110000C94FD0E0C9442120C9486010C94D60E95
:100120000C94EB0E0C94030F0C94DA0E0C94B70F96
:100130000C94E70E0C94E00E0C9495110C94C20FE5
:100140000C9464100C94D00F0C94E40E0C94421098
:100150000C9438120C94110F0C94070F0C949512F8
:100160000C94EF0E0C94150F0C948B110C94190F2A
:100170000C941E0F0C94F50E0C941B080C94F90EA5
:1001800000000A0B02090C0D0E0807030401000011
:10019000000000000000000000000000000000005F
:1001A000000000000000000000000000121110001C
:1001B000000000000000000000000000000000003F
:1001C000000000000000010210202008081020405C
:1001D000102040800201020108040201010204080B
:1001E0001020408080402010080402018004020199
:1001F00080402010080402010804020101020408E2
:1002000010204080010204081020408005050505EB
:10021000070508080808020202020A0A080804047E
:1002200004040101010101010101030303030303AC
:100230000303040707070C0C0C0C0C0C0C0C02023B
:10024000020206060606060606060B0B0B0B0B0B38
:100250000B0B000020002300260029002C002F009B
:100260003200000100000301060109010000220024
:10027000250028002B002E00310034000201000070
:10028000050108010B0100002100240027002A00BD
:100290002D003000330001010000040107010A01B4
:1002A0001B089511421211241FBECFEFD1E2DEBF11
:1002B000CDBF00E00CBF13E0A0E0B2E0E0EDF3E35F
:1002C00000E00BBF02C007900D92A03BB107D9F729
:1002D00026E0A0EBB3E001C01D92A733B207E1F71F
:1002E00012E0C6EAD2E000E006C022970109FE0152
:1002F0000BBF0E94C217C03AD10780E00807A9F7D8
:100300000E9486120C94E6190C9400008091B603AA
:100310009091B7039093C4038093C5031092C603D2
:100320008091B4038093C703809106028093C80331
:100330008DB79EB740970FB6F8949EBF0FBE8DBF86
:10034000ADB7BEB7119680E1ECEBF3E001900D92F2
:100350008A95E1F761E087E894E00E94AB098DB7E8
:100360009EB740960FB6F8949EBF0FBE8DBF61E05A
:1003700087E894E00C94970960E887E894E00E948D
:10038000750A44E660E687E894E00E94720940E658
:1003900060E787E894E00E94720923E04FEF6BE288
:1003A00087E894E00E943F0A20E04FEF6CE287E884
:1003B00094E00E943F0A60E087E894E00C94750A9C
:1003C000CF93DF9361E085E30E941F0F40E16AEF66
:1003D00070E087E894E00E94A50BEC0168EE73E002
:1003E00080E090E00E941C0E1C161D0654F468EE7E
:1003F00073E080E090E00E941C0E0E94BC0181E04E
:1004000001C080E0DF91CF91089584E00E945208FE
:1004100080E00E944D0881E00E9444080C94250869
:10042000CF93DF93EC01662319F067E272E002C01C
:100430006CE272E0CE010E942815CE01DF91CF91CF
:100440000895CF93DF9300D000D0CDB7DEB762E33D
:1004500072E089EF94E00E94E11264E372E089EFB8
:1004600094E00E94E11260918B0470918C044AE048
:1004700050E089EF94E00E94C51365E472E089EFD3
:1004800094E00E94E11268E472E089EF94E00E9437
:10049000E11260912002709121024AE050E089EF60
:1004A00094E00E94C51365E472E089EF94E00E9435
:1004B000E11269E572E089EF94E00E94E112609137
:1004C0001E0270911F024AE050E089EF94E00E9402
:1004D000C51365E472E089EF94E00E94E11263E6DF
:1004E00072E089EF94E00E94E1126091A60470919D
:1004F000A7044AE050E089EF94E00E94C51365E448
:1005000072E089EF94E00E94E1126DE672E089EFFB
:1005100094E00E94E1126091A4047091A5044AE065
:1005200050E089EF94E00E94C51365E472E089EF22
:1005300094E00E94E1126CE772E089EF94E00E947F
:10054000E1126091A304CE0101960E941002BE0147
:100550006F5F7F4F89EF94E00E94D312CE01019626
:100560000E94BA1465E472E089EF94E00E94E112FF
:1005700068E872E089EF94E00E94E1126091A104C2
:100580007091A2044AE050E089EF94E00E94C51304
:1005900065E472E089EF94E00E94E11269E972E09B
:1005A00089EF94E00E94E11260918F04CE010196E0
:1005B0000E941002BE016F5F7F4F89EF94E00E949E
:1005C000D312CE0101960E94BA1465E472E089EF5D
:1005D00094E00E94E11266EA72E089EF94E00E94E2
:1005E000E1126091A004CE0101960E941002BE01AA
:1005F0006F5F7F4F89EF94E00E94D312CE01019686
:100600000E94BA1465E472E089EF94E00E94E1125E
:1006100065EB72E089EF94E00E94E11260919F0423
:10062000CE0101960E941002BE016F5F7F4F89EFDD
:1006300094E00E94D312CE0101960E94BA1469EC94
:1006400072E089EF94E00E94101326960FB6F8949A
:10065000DEBF0FBECDBFDF91CF910895CF93DF9363
:1006600000D000D0CDB7DEB762E372E086E995E056
:100670000E94E11264E372E086E995E00E94E112D3
:1006800060918B0470918C044AE050E086E995E01B
:100690000E94C51365E472E086E995E00E94E112CC
:1006A00068E472E086E995E00E94E1126091200220
:1006B000709121024AE050E086E995E00E94C5135E
:1006C00065E472E086E995E00E94E11269E572E076
:1006D00086E995E00E94E11260911E0270911F026E
:1006E0004AE050E086E995E00E94C51365E472E0B7
:1006F00086E995E00E94E11263E672E086E995E002
:100700000E94E1126091A6047091A7044AE050E0B3
:1007100086E995E00E94C51365E472E086E995E0FC
:100720000E94E1126DE672E086E995E00E94E11216
:100730006091A4047091A5044AE050E086E995E038
:100740000E94C51365E472E086E995E00E94E1121B
:100750006CE772E086E995E00E94E1126091A304E3
:10076000CE0101960E941002BE016F5F7F4F86E9A5
:1007700095E00E94D312CE0101960E94BA1465E45E
:1007800072E086E995E00E94E11268E872E086E98D
:1007900095E00E94E1126091A1047091A2044AE0E8
:1007A00050E086E995E00E94C51365E472E086E9B1
:1007B00095E00E94E11269E972E086E995E00E9405
:1007C000E11260918F04CE0101960E941002BE01D9
:1007D0006F5F7F4F86E995E00E94D312CE010196AC
:1007E0000E94BA1465E472E086E995E00E94E11285
:1007F00066EA72E086E995E00E94E1126091A00449
:10080000CE0101960E941002BE016F5F7F4F86E904
:1008100095E00E94D312CE0101960E94BA1465E4BD
:1008200072E086E995E00E94E11265EB72E086E9EC
:1008300095E00E94E11260919F04CE0101960E9412
:100840001002BE016F5F7F4F86E995E00E94D312D0
:10085000CE0101960E94BA1469EC72E086E995E037
:100860000E94101326960FB6F894DEBF0FBECDBFC0
:10087000DF91CF910895CF92DF92EF92FF920F9385
:100880001F9380911C020E94A60E90939C0480935B
:100890009B0480911A020E94A60E90939E0480935E
:1008A0009D04809112020E94A60E9093960480935C
:1008B0009504809114020E94A60E90939404809354
:1008C0009304809118020E94A60E90939A0480933C
:1008D0009904809116020E94A60E9093980480932A
:1008E0009704109291041092900420919B043091EF
:1008F0009C042D3241E03407ECF020919D043091AE
:100900009E042C3231400CF047C020919904309164
:100910009A042C3241E034070CF0CEC08D3241E015
:1009200094070CF4C9C041E050E050938C0440930C
:100930008B04C2C02C32314079F120919D0430915A
:100940009E042C3241E034077CF4209199043091CC
:100950009A042D32314004F18D329140ECF0109226
:100960008C0410928B0418C02D323140ACF02091D1
:10097000990430919A042D3241E034070CF090C074
:100980002C3231404CF48D32914034F081E090E0D3
:100990009093910480939004209195043091960453
:1009A00080918B0490918C04283C310554F400977D
:1009B00041F021E0209392042093A00420938D0421
:1009C00006C0109292041092A00410928D042091FF
:1009D000890430918A042817390769F190938A04B1
:1009E00080938904009789F081309105A9F00196E0
:1009F00011F561E080910E020E94580F60E0809135
:100A00000A020E94580F61E012C060E080910E025D
:100A10000E94580F60E006C061E080910E020E94C3
:100A2000580F61E080910A020E94580F60E08091A7
:100A30000C020E94580F0E94ED0D0091A804109125
:100A4000A9042091AA043091AB046B017C01C01A67
:100A5000D10AE20AF30A00912202109123022091A6
:100A60002402309125020C151D052E053F0578F551
:100A70006093A8047093A9048093AA049093AB0494
:100A80000E9421020E942E0364EF71E080E090E05A
:100A90001F910F91FF90EF90DF90CF900C941C0E60
:100AA0008C3241E094070CF06BCF4FEF5FEF509327
:100AB0008C0440938B0464CF2D3231400CF46CCF06
:100AC0008C3291400CF068CF8FEF9FEF61CF1F9178
:100AD0000F91FF90EF90DF90CF90089584EF95EE07
:100AE000A6E0B8E18093BC039093BD03A093BE033E
:100AF000B093BF0381E08093C0031092C103809341
:100B0000C20398E09093C3031092C4031092C503EC
:100B10001092C6031092C7038093C8031092C903B2
:100B20001092CA031092CB030E9405020E94E001BA
:100B300090910702982390930702089526E040E0E1
:100B400052EC61E070E089EF94E00E94C91026E069
:100B500040E052EC61E070E086E995E00E94C91047
:100B6000809114020E94A60E9093940480939304A3
:100B7000893C910514F181E080938E0410928C04DD
:100B800010928B0410928A041092890460E0809184
:100B90000E020E94580F60E080910A020E94580FD6
:100BA00060E080910C020E94580F60ED77E080E0D9
:100BB00090E00E941C0E61E003C010928E0460E081
:100BC000809108020E94580F0E946E0561E080919A
:100BD00010020E941F0F61E080910E020E941F0F01
:100BE00061E080910A020E941F0F61E080910C0277
:100BF0000E941F0F61E0809108020E941F0F26E8EB
:100C000031E048EE53E060E070E08CEC93E00C944F
:100C1000B50CCF92DF92EF92FF920F931F93CF9379
:100C2000DF9300D000D0CDB7DEB78C0162EE72E06A
:100C3000CE0101960E942815F80140815181628100
:100C40007381452B462B472B09F440C1608570E02A
:100C5000762F66278185680F711D7093BB036093A3
:100C6000BA03828590E0982F88272385820F911DF3
:100C70009093B9038093B803048510E0882777FD2B
:100C80008095982F0E947F166B017C0120E030E058
:100C90004CE351E40E94E4150E944C16709321022B
:100CA0006093200228E431EE4AE651E4C701B60120
:100CB0000E94E4150E944C1670931F0260931E025E
:100CC000C80123E0959587952A95E1F7892B41F096
:100CD0006CEC72E0CE0101960E946A1521E001C021
:100CE00020E0C80154E0959587955A95E1F7892B46
:100CF00039F063EE72E0CE0101960E946A1521E0A0
:100D0000C8019595879595958795892B39F06BEF57
:100D100072E0CE0101960E946A1521E0C801959506
:100D20008795892B39F063E173E0CE0101960E942B
:100D30006A1502C0012B39F069E273E0CE01019619
:100D40000E946A1502C0222329F01092B10310926A
:100D5000B00321E08091B0039091B10381309105FF
:100D6000B9F08230910509F446C0892B09F065C0BD
:100D700081E080930602211106C081E090E090930B
:100D8000B1038093B0031092B3031092B20355C025
:100D90001092060287E994E09093B7038093B6031C
:100DA00080E590E09093B5038093B4036CE373E027
:100DB000CE0101960E946A158091BA039091BB03FF
:100DC00088399440C4F18091B8039091B9030A978F
:100DD00094F58091B2039091B30301969093B3037D
:100DE0008093B20344973CF182E090E09093B1038A
:100DF0008093B00320C01092060288E394E09093A1
:100E0000B7038093B60382E390E09093B503809399
:100E1000B40368E573E0CE0101960E946A1584E68A
:100E200090E0909321028093200280E590E09093DF
:100E30001F0280931E020E94210262E773E086E98E
:100E400095E00E94E1126091BA037091BB0388277C
:100E500077FD8095982F0E947F1620E030E040E2D9
:100E600051E40E94E415AB01BC0122E030E086E9C8
:100E700095E00E94B8146BE773E086E995E00E9464
:100E8000E1126091B8037091B903882777FD8095CE
:100E9000982F0E947F1620E030E040E251E40E944B
:100EA000E415AB01BC0122E030E086E995E00E9448
:100EB000B81464E873E086E995E00E94E112BE018F
:100EC0006F5F7F4F86E995E00E94FE12CE0101968A
:100ED0000E94BA1426960FB6F894DEBF0FBECDBF9F
:100EE000DF91CF911F910F91FF90EF90DF90CF9006
:100EF00008951F93CF93DF93CDB7DEB760970FB6FA
:100F0000F894DEBF0FBECDBF6CE287E894E00E948C
:100F10009408182F87E894E00E946B0A811105C09D
:100F20008CEC93E00E94510CF5CF87E894E00E948E
:100F30006B0A882309F453C010FF24C06CE287E8D1
:100F400094E00E949408182F40E067E874E0CE0116
:100F500001960E94B00880E1FE013196A7E7B4E057
:100F600001900D928A95E1F787E794E00E940906C7
:100F700081E08093760420E041E06CE287E894E031
:100F80000E943F0A12FF0AC084E08093760420E0AA
:100F900044E06CE287E894E00E943F0A15FF0AC033
:100FA00080E28093760420E040E26CE287E894E0FF
:100FB0000E943F0A17FF13C080E88093760420E068
:100FC00040E86CE287E894E060960FB6F894DEBFE4
:100FD0000FBECDBFDF91CF911F910C943F0A609659
:100FE0000FB6F894DEBF0FBECDBFDF91CF911F913A
:100FF0000895C1E0809114020E94A60E909394047B
:1010000080939304893C91051CF0C0938F0402C027
:1010100010928F0430918E0420918F04321711F0BA
:101020000C940000893C91051CF00E947907E2CFE6
:101030000E943B04DFCF42E065E387E894E00E9432
:1010400066088CEC93E00C943D0C61E084E30E9414
:101050001F0F61E083E30E941F0F61E085E30E94A0
:101060001F0F60E084E30E94580F60E083E30E945A
:10107000580F61E085E30E94580F8CB580618CBDEC
:101080008CB580648CBD0895811103C08CB58062DD
:1010900002C08CB58F7D8CBD08959CB5937F982B35
:1010A0009CBD08952CB5982F93702C7F922B9CBDDE
:1010B0009DB582FB882780F99E7F982B9DBD089562
:1010C0008EBD0DB407FEFDCF8EB508950F931F930F
:1010D000CF93DF93EC01062F142F61E0802F0E9445
:1010E0001F0F61E0802F0E94580F60E0812F0E9447
:1010F0001F0F61E0812F0E94580F08831983DF9131
:10110000CF911F910F910895CF93DF93EC0160E091
:1011100088810E94580F80EC0E94600861E08881FD
:10112000DF91CF910C94580F1F93CF93DF93EC0175
:10113000162F60E088810E94580F83E00E946008AB
:10114000812F0E94600880E00E946008182F61E0F3
:1011500088810E94580F812FDF91CF911F910895B0
:101160008F929F92AF92BF92CF92DF92EF92FF92B7
:101170000F931F93CF93DF931F92CDB7DEB74C0130
:101180008B0160E0F801808149830E94580F4981FA
:10119000842F880F80690E94600880E00E946008A8
:1011A000C82E80E00E946008482F80E049830E949A
:1011B0006008A82E80E00E946008B82E80E00E949F
:1011C0006008982F4981842F8071F4018483542F03
:1011D00058705683D12C242F30E05523A1F1842F51
:1011E0008370A601A5E0440F551FAA95E1F7482B8F
:1011F000B5E035952795BA95E1F7220F331F220FF9
:10120000331F422B532B662757FD6095762F23E023
:10121000D594C7942A95E1F7EE24D7FCE094FE2CF0
:10122000FE2CED2CDC2CCC244C295D296E297F2949
:10123000762F652F542F44274A29762F652F542F58
:1012400044274B291CC0A90185E0559547958A95EF
:10125000E1F7960163E0220F331F6A95E1F7422B15
:10126000532B75E0D594C7947A95E1F7DC2CCC2408
:101270004C295D29662757FD6095762FF401408340
:10128000518362837383892F8074F40185839F70F7
:1012900097836401F8E0CF0ED11CE12CF12CA92E2C
:1012A000B12CEA14FB0454F480E00E946008F601BB
:1012B00081936F01FFEFEF1AFF0AF3CF61E0F801AE
:1012C00080810E94580FC4010F90DF91CF911F9130
:1012D0000F91FF90EF90DF90CF90BF90AF909F90D5
:1012E0008F900895EF92FF921F93CF93DF931F92F9
:1012F000CDB7DEB77C01162F60E0FC018081498309
:101300000E94580F82E00E946008812F0E946008AE
:101310004981842F0E94600861E0F70180810F906D
:10132000DF91CF911F91FF90EF900C94580F1F9376
:10133000CF93DF93EC01162F60E088810E94580F55
:10134000812F80680E94600861E08881DF91CF91E1
:101350001F910C94580FAF92BF92CF92DF92EF92F1
:10136000FF920F931F93CF93DF931F921F92CDB7DE
:10137000DEB78C01962F488959896A897B89BF8895
:10138000913009F490E08E896A017B018823D1F0C5
:1013900033E0CC0CDD1CEE1CFF1C3A95D1F7AF2CD2
:1013A0006A017B017BE0CC0CDD1CEE1CFF1C7A95F6
:1013B000D1F78F2D807E262F23702860282BE52ED5
:1013C000D42E13C085E1CC0CDD1CEE1CFF1C8A95CD
:1013D000D1F7AF2C2DE1440F551F661F771F2A95BB
:1013E000D1F7272F207ED12CE12C8D89882321F065
:1013F0008B2D8064F82E01C0FB2C60E0F801808109
:101400002A8399830E94580F9981892F80640E94B2
:1014100060088A2D0E9460082A81822F0E9460083D
:101420008E2D0E9460088D2D0E9460088F2D0E94D5
:1014300060086E01F8E1CF0ED11CE12CF12CAB2C31
:10144000B12CEA14FB044CF4F60181916F010E9467
:101450006008FFEFEF1AFF0AF4CF61E0F801808126
:101460000E94580F0F900F90DF91CF911F910F9115
:10147000FF90EF90DF90CF90BF90AF900895EF92E4
:10148000FF921F93CF93DF931F921F92CDB7DEB7CA
:101490007C01162F60E0FC0180812A8349830E9431
:1014A000580F85E00E946008812F0E9460084981E2
:1014B000842F0E9460082A81822F0E94600861E0C8
:1014C000F70180810F900F90DF91CF911F91FF90D6
:1014D000EF900C94580FFC0181810E948E0F21E047
:1014E000892B09F020E0822F08951F93CF93DF937B
:1014F000EC01162F262F40EE6FE00E943F0A6AE0B3
:1015000070E080E090E00E941C0E6EE0CE010E9430
:101510009408982F912381E0911380E0DF91CF917F
:101520001F9108952F923F924F925F926F927F92F8
:101530008F929F92AF92BF92CF92DF92EF92FF92E3
:101540000F931F93CF93DF9300D01F92CDB7DEB7D9
:101550009C838B837B01442E322E0A830E94840855
:10156000B701882777FD8095982F0E947F169B01F1
:10157000AC0160E070E080E89FE30E94E41520E0A9
:1015800030E04AE754E40E9433174B015C0101E06C
:1015900010E0512C612C712C8FEF800F8983B801E2
:1015A000882777FD8095982F0E947F169B01AC01BC
:1015B0000E947C156B017C01C301B2010E947D1663
:1015C0009B01AC01C701B6010E94E4159B01AC016F
:1015D000C501B4010E94E4156B017C0120E030E0FC
:1015E00048EC51E40E94E0151816DCF0C701B60182
:1015F0000E944C16262ECB019927BC01882777FD27
:101600008095982F0E947F169B01AC01C701B601FF
:101610000E947B1520E030E0A9010E94E01588239C
:1016200041F00F5F1F4F0930110509F0B5CFE8E019
:10163000E983622D70E080E090E00E947F1623E352
:1016400033E343E35FE30E9433170E945116862F72
:1016500090E08C010150110917FD8C01159507953B
:101660006150E62EE01AD22CD61A4FEF4D0DF12C18
:1016700098012E0D3F1D842F90E0281739070CF498
:101680004BC0341608F048C0832D90E00197E6E087
:10169000880F991FEA95E1F73980382A432D6AE2CD
:1016A0008B819C810E9472094FEF400F4068970127
:1016B00021503109F3E0220F331FFA95E1F7422B55
:1016C00069E28B819C810E9472094EEF4D0D40684A
:1016D00068E28B819C810E94720940E06DE08B8101
:1016E0009C810E947209FA81F11102C060E001C080
:1016F00060E68B819C810E94750A882369F04FEF18
:101700006BE28B819C810E9472096AE28B819C81D1
:101710000E94940891E0831190E0892F0F900F9020
:101720000F900F90DF91CF911F910F91FF90EF904D
:10173000DF90CF90BF90AF909F908F907F906F90F1
:101740005F904F903F902F900895EF92FF920F93EC
:101750001F93CF93DF937C01EB01142F1C161D0602
:101760004CF400E021E00E94920A81112FC080E039
:1017700090E02DC0C5E0D0E001E021E0412FBE01A6
:10178000C7010E94920A8823D9F040E06CE2C701A9
:101790000E94720964EF71E080E090E00E941C0EEC
:1017A000C7010E946B0A882359F06CE2C7010E94AE
:1017B000940887FD05C060E0C7010E94750A06C055
:1017C0002596C83E83E0D807B9F6D1CFCE01DF9188
:1017D000CF911F910F91FF90EF900895FC0110821F
:1017E0000895CF92DF92EF92FF92CF93DF93EC01B7
:1017F0000E94ED0D6B017C018B859C85AD85BE85BE
:10180000A7019601281B390B4A0B5B0BDA01C901B2
:1018100049815A816B817C8184179507A607B70798
:10182000D8F08881813019F0823029F00CC0E98528
:10183000FA85199508C061E08885811160E06887A4
:101840008F810E94580FCB86DC86ED86FE868F85C1
:1018500098890196988B8F878D819E8197FD06C010
:101860002F853889281739070CF01882DF91CF911E
:10187000FF90EF90DF90CF9008950F931F93CF9339
:10188000DF93EC018C0106551F4FCE010E94EE0B39
:101890006196C017D107C9F7DF91CF911F910F91C2
:1018A00008951F93CF93DF93EC011AE0888188237A
:1018B00019F0CE010E94F10B115061961111F6CF73
:1018C000DF91CF911F91089520E0FC0130813323F7
:1018D00031F02F5F41962A30C1F78FEF0895822FA4
:1018E0000895CF92DF92EF92FF920F931F93CF93C1
:1018F000DF9300D01F92CDB7DEB76C017901498329
:101900005A836B837C830E94640C282F49815A81FF
:101910006B817C818F3FD9F081E12802C00CD11C02
:10192000112481E0F60180834183528363837483B1
:1019300016830583F286E18629830E94ED0DF60168
:101940006387748785879687108A17862981822FF7
:101950000F900F900F900F90DF91CF911F910F91EB
:10196000FF90EF90DF90CF9008950F931F930FEFAC
:101970001FEF0E94710C1F910F91089520E00197B5
:101980002FEF8F3F9207D9F70895EF92FF920F93B1
:101990001F93CF93DF93EC018B8DEE85FF859D85A3
:1019A00081FF04C08081892329F445C08081892377
:1019B00009F041C08B899C890E94BE0C08E010E0B0
:1019C000EE24E394F12C8D899E890E94BE0CEE8555
:1019D000FF8580819D85892311F0FE2803C08E2D0F
:1019E0008095F822EE0C0150110969F78F89988DC6
:1019F0000E94BE0C8B8D81FDF0948091AD042091EE
:101A0000AC0490E001968F73992730E0821793071A
:101A100079F0E091AD04F0E0E255FB4FF082809167
:101A2000AD0490E001968F7399278093AD0403C0B5
:101A30008B8D81608B8FDF91CF911F910F91FF90E4
:101A4000EF9008958091EE049091EF04009711F0CB
:101A50000C94C50C08951F920F920FB60F9211248B
:101A60000BB60F922F933F934F935F936F937F9398
:101A70008F939F93AF93BF93EF93FF930E94220D99
:101A8000FF91EF91BF91AF919F918F917F916F9156
:101A90005F914F913F912F910F900BBE0F900FBE12
:101AA0000F901F9018951F920F920FB60F9211244E
:101AB0000BB60F922F933F934F935F936F937F9348
:101AC0008F939F93AF93BF93EF93FF930E94220D49
:101AD000FF91EF91BF91AF919F918F917F916F9106
:101AE0005F914F913F912F910F900BBE0F900FBEC2
:101AF0000F901F9018951F920F920FB60F921124FE
:101B00000BB60F922F933F934F935F936F937F93F7
:101B10008F939F93AF93BF93EF93FF930E94220DF8
:101B2000FF91EF91BF91AF919F918F917F916F91B5
:101B30005F914F913F912F910F900BBE0F900FBE71
:101B40000F901F9018951F920F920FB60F921124AD
:101B50002F933F938F939F93AF93BF938091F10403
:101B60009091F204A091F304B091F4043091F00448
:101B700023E0230F2D3720F40196A11DB11D05C0D0
:101B800026E8230F0296A11DB11D2093F004809337
:101B9000F1049093F204A093F304B093F4048091C1
:101BA000F5049091F604A091F704B091F804019621
:101BB000A11DB11D8093F5049093F604A093F70442
:101BC000B093F804BF91AF919F918F913F912F9166
:101BD0000F900FBE0F901F9018952FB7F89460913B
:101BE000F1047091F2048091F3049091F4042FBFFA
:101BF00008953FB7F8948091F5049091F604A09170
:101C0000F704B091F80426B5A89B05C02F3F19F042
:101C10000196A11DB11D3FBF6627782F892F9A2FEE
:101C2000620F711D811D911D42E0660F771F881F95
:101C3000991F4A95D1F70895CF92DF92EF92FF92C4
:101C4000CF93DF936B017C010E94F90DEB01C1146E
:101C5000D104E104F10489F00E947A150E94F90D83
:101C60006C1B7D0B683E734090F381E0C81AD1086D
:101C7000E108F108C851DC4FEACFDF91CF91FF9026
:101C8000EF90DF90CF900895789484B5826084BD02
:101C900084B5816084BD85B5826085BD85B5816070
:101CA00085BDEEE6F0E0808181608083E1E8F0E0D0
:101CB0001082808182608083808181608083E0E8FF
:101CC000F0E0808181608083E1EBF0E080818460DE
:101CD0008083E0EBF0E0808181608083E1E9F0E0E7
:101CE000808182608083808181608083E0E9F0E090
:101CF000808181608083E1EAF0E08081826080837E
:101D0000808181608083E0EAF0E08081816080836F
:101D1000E1E2F1E080818260808380818160808364
:101D2000E0E2F1E0808181608083EAE7F0E0808199
:101D300084608083808182608083808181608083F1
:101D40008081806880831092C1000895863308F0F6
:101D5000865320917B00982F9870277F922B909329
:101D60007B0087702091260290E4299F9001112426
:101D7000822B80937C0080917A00806480937A002B
:101D800080917A0086FDFCCF8091780020917900C7
:101D900090E0922B089590E0FC013197E231F1053B
:101DA00008F04CC0EE58FF4F0C94BC178091800097
:101DB0008F7703C0809180008F7D8093800008958D
:101DC00080918000877FF9CF84B58F7702C084B57A
:101DD0008F7D84BD08958091B0008F7703C080917E
:101DE000B0008F7D8093B0000895809190008F7730
:101DF00007C0809190008F7D03C080919000877F05
:101E00008093900008958091A0008F7707C0809103
:101E1000A0008F7D03C08091A000877F8093A000E9
:101E20000895809120018F7707C0809120018F7DD8
:101E300003C080912001877F809320010895CF9374
:101E4000DF9390E0FC01EA53FE4F2491FC01E45F34
:101E5000FD4F8491882349F190E0880F991FFC0180
:101E6000EA57FD4FA591B49184599D4FFC01C5914E
:101E7000D4919FB7611108C0F8948C91209582236A
:101E80008C93888182230AC0623051F4F8948C913B
:101E9000322F309583238C938881822B888304C0D2
:101EA000F8948C91822B8C939FBFDF91CF910895F2
:101EB0000F931F93CF93DF931F92CDB7DEB7282FD9
:101EC00030E0F901E058FE4F8491F901EA53FE4FEA
:101ED0001491F901E45FFD4F04910023C9F08823B8
:101EE00021F069830E94CB0E6981E02FF0E0EE0FB4
:101EF000FF1FE459FD4FA591B4919FB7F8948C91C1
:101F0000611103C01095812301C0812B8C939FBF69
:101F10000F90DF91CF911F910F910895CF93DF9391
:101F2000282F30E0F901E058FE4F8491F901EA537F
:101F3000FE4FD491F901E45FFD4FC491CC2391F0A1
:101F400081110E94CB0EEC2FF0E0EE0FFF1FEE5A36
:101F5000FD4FA591B4912C912D2381E090E021F4C7
:101F600080E002C080E090E0DF91CF910895FC0115
:101F7000818D228D90E0805C9F4F821B91098F7331
:101F800099270895FC01918D828D981731F0828DEB
:101F9000E80FF11D858D90E008958FEF9FEF089574
:101FA000FC01918D828D981761F0828DDF01A80F61
:101FB000B11D5D968C91928D9F5F9F73928F90E083
:101FC00008958FEF9FEF08958BE891E1892B41F001
:101FD00080E090E0892B21F00E948B11811125C0B7
:101FE00080E090E0892B41F080E090E0892B21F0A7
:101FF0000E94000081111CC080E090E0892B41F01C
:1020000080E090E0892B21F00E940000811113C034
:1020100088E392E1892BA1F080E090E0892B81F0A8
:102020000E94381281110AC008950E940000D8CF82
:102030000E940000E1CF0E940000EACF0C94000053
:102040000895FC01848DDF01A80FB11DA35ABF4F75
:102050002C91848D90E001968F739927848FA689A7
:10206000B7892C93A089B1898C9180648C93938DCE
:10207000848D981306C00288F389E02D80818F7DBE
:1020800080830895CF93DF93EC01888D8823C9F076
:10209000EA89FB89808185FD05C0A889B9898C9171
:1020A00086FD0FC00FB607FCF5CF808185FFF2CF0C
:1020B000A889B9898C9185FFEDCFCE010E942110AE
:1020C000E7CFDF91CF910895CF92DF92FF920F93E8
:1020D0001F93CF93DF931F92CDB7DEB76C01DC0166
:1020E0005B969C915B975C968C915C97981307C06C
:1020F0005096ED91FC915197808185FD32C0F6019B
:10210000038D10E00F5F1F4F0F731127F02EF601A4
:10211000848DF81211C00FB607FCF9CFD601509686
:10212000ED91FC915197808185FFF1CFC6016983C4
:102130000E9421106981EBCF838DE80FF11DE35AD6
:10214000FF4F6083D6015B960C935B975296ED919F
:10215000FC91539780818062808381E058968C93B4
:102160000DC0D6015696ED91FC915797608350961D
:10217000ED91FC91519780818064808381E090E0B3
:102180000F90DF91CF911F910F91FF90DF90CF9033
:102190000895BF92CF92DF92EF92FF92CF93DF9399
:1021A000EC016A017B01B22EE889F98982E0808323
:1021B000411581EE580761057105A1F060E079E0F5
:1021C0008DE390E0A70196010E949A1721503109F2
:1021D000410951095695479537952795211580E175
:1021E000380798F0E889F989108260E874E88EE190
:1021F00090E0A70196010E949A17215031094109E8
:1022000051095695479537952795EC85FD8530837F
:10221000EE85FF852083188EEC89FD89B082EA89DE
:10222000FB89808180618083EA89FB898081886065
:102230008083EA89FB89808180688083EA89FB89C1
:1022400080818F7D8083DF91CF91FF90EF90DF9031
:10225000CF90BF9008951F920F920FB60F92112446
:102260000BB60F922F938F939F93EF93FF93E09171
:102270000905F0910A058081E0910F05F0911005A4
:1022800082FD12C09081809112058F5F8F73209123
:102290001305821751F0E0911205F0E0E750FB4F73
:1022A000958F8093120501C08081FF91EF919F91DE
:1022B0008F912F910F900BBE0F900FBE0F901F901C
:1022C00018951F920F920FB60F9211240BB60F9212
:1022D0002F933F934F935F936F937F938F939F932E
:1022E000AF93BF93EF93FF9389EF94E00E94211087
:1022F000FF91EF91BF91AF919F918F917F916F91DE
:102300005F914F913F912F910F900BBE0F900FBE99
:102310000F901F90189589EF94E00E94B70F21E06D
:10232000892B09F420E0822F08951092FC0410926A
:10233000FB0488EE93E0A0E0B0E08093FD0490936E
:10234000FE04A093FF04B093000586E993E0909308
:10235000FA048093F90485EC90E09093060580934D
:10236000050584EC90E0909308058093070580ECC8
:1023700090E090930A058093090581EC90E090939A
:102380000C0580930B0582EC90E090930E058093F2
:102390000D0586EC90E09093100580930F05109248
:1023A0001205109213051092140510921505089548
:1023B0001F920F920FB60F9211240BB60F922F930C
:1023C0008F939F93EF93FF93E091A605F091A7055C
:1023D0008081E091AC05F091AD0582FD12C0908145
:1023E0008091AF058F5F8F732091B005821751F0F8
:1023F000E091AF05F0E0EA56FA4F958F8093AF0574
:1024000001C08081FF91EF919F918F912F910F904B
:102410000BBE0F900FBE0F901F9018951F920F923A
:102420000FB60F9211240BB60F922F933F934F9339
:102430005F936F937F938F939F93AF93BF93EF932C
:10244000FF9386E995E00E942110FF91EF91BF91E3
:10245000AF919F918F917F916F915F914F913F913C
:102460002F910F900BBE0F900FBE0F901F901895DD
:1024700086E995E00E94B70F21E0892B09F420E05E
:10248000822F0895109299051092980588EE93E096
:10249000A0E0B0E080939A0590939B05A0939C05E3
:1024A000B0939D0586E993E09093970580939605F8
:1024B00085E391E09093A3058093A20584E391E0E6
:1024C0009093A5058093A40580E391E09093A705E0
:1024D0008093A60581E391E09093A9058093A805D8
:1024E00082E391E09093AB058093AA0586E391E0A7
:1024F0009093AD058093AC051092AF051092B00596
:102500001092B1051092B205089508950E94440EEC
:102510000E9485120E949E05C4EEDFE00E94F9072A
:102520002097E1F30E94E40FF9CFCF92DF92EF9270
:10253000FF920F931F93CF93DF936C017A01EB010E
:10254000E60EF71E00E010E0CE15DF0561F06991A0
:10255000D601ED91FC910190F081E02DC601199515
:10256000080F191FF1CFC801DF91CF911F910F9173
:10257000FF90EF90DF90CF9008956115710581F085
:10258000DB010D900020E9F7AD0141505109461BD8
:10259000570BDC01ED91FC910280F381E02D199441
:1025A00080E090E00895DC01ED91FC91DB01149650
:1025B0004D915C9115976D917C910280F381E02D96
:1025C00019940C94BD12DC01ED91FC910190F08105
:1025D000E02D19940F931F93CF93DF93EC016DE0DF
:1025E0000E94E3128C016AE0CE010E94E312800F88
:1025F000911FDF91CF911F910F9108950F931F931A
:10260000CF93DF93EC010E94D3128C01CE010E9484
:10261000EA12800F911FDF91CF911F910F910895C2
:102620000F931F93CF93DF93EC010E94BD128C0197
:10263000CE010E94EA12800F911FDF91CF911F916E
:102640000F9108958F929F92AF92BF92CF92DF9297
:10265000EF92FF920F931F93CF93DF93CDB7DEB727
:10266000A1970FB6F894DEBF0FBECDBF7C01C42E7C
:10267000E52FCB01D22E19A221E02D1510F02AE072
:10268000D22E8E010F5D1F4F8D2C912CA12CB12CC1
:102690006C2D7E2FA50194010E949A178C2DD29E3D
:1026A00080191124015011098A3014F4805D01C091
:1026B000895CF8018083211531054105510521F020
:1026C000C22EE32FCA01E4CFB801C7010E94BD1298
:1026D000A1960FB6F894DEBF0FBECDBFDF91CF91AC
:1026E0001F910F91FF90EF90DF90CF90BF90AF9030
:1026F0009F908F900895CF92DF92EF92FF920F9369
:102700001F93CF93DF93EC016A017B012115310503
:1027100079F4E881F9810190F081E02D642FDF9157
:10272000CF911F910F91FF90EF90DF90CF90199470
:102730002A303105E9F477FF1AC06DE20E94E312F6
:102740008C0144275527BA014C195D096E097F0990
:102750002AE0CE010E942213800F911FDF91CF91BA
:102760001F910F91FF90EF90DF90CF9008952AE096
:10277000B701A601CE01DF91CF911F910F91FF907C
:10278000EF90DF90CF900C9422139A01AB01662753
:1027900057FD6095762F0C947B134F925F926F924A
:1027A0007F928F929F92AF92BF92CF92DF92EF92E1
:1027B000FF920F931F93CF93DF93EC016A017B018C
:1027C000B22E9A01AB01C701B6010E949617882369
:1027D00019F062EA73E027C026013701E89477F820
:1027E0002FEF3FEF4FE75FE7C301B2010E9496175B
:1027F00081110DC02FEF3FEF4FE75FE7C301B2013B
:102800000E94E01518161CF466EA73E00CC02FEF66
:102810003FEF4FE75FE4C701B6010E942F1718167C
:10282000ACF46AEA73E0CE01DF91CF911F910F9172
:10283000FF90EF90DF90CF90BF90AF909F908F90E0
:102840007F906F905F904F900C94BD122FEF3FEFF1
:102850004FE75FECC701B6010E94E01587FDE1CFAD
:1028600020E030E0A901C701B6010E94E01587FF12
:102870000AC06DE2CE010E94E3128C01F7FAF094D7
:10288000F7F8F09402C000E010E0A12C60E070E0E6
:1028900080E09FE3AB1441F020E030E040E251E4FF
:1028A0000E94E415A394F6CF9B01AC01C701B601C9
:1028B0000E947C156B017C010E9451162B013C018A
:1028C0000E947D169B01AC01C701B6010E947B15D9
:1028D0006B017C012AE0B301A201CE010E94221308
:1028E000080F191FBB2039F06EEA73E0CE010E9479
:1028F000BD12080F191F7B2C772041F120E030E03A
:1029000040E251E4C701B6010E9433176B017C011C
:102910000E944C164B01AA2497FCA094BA2C2AE0E2
:1029200030E0B501A401CE010E947B13080F191FEE
:10293000C501B4010E947F169B01AC01C701B6011D
:102940000E947B156B017C017A94D6CFC801DF9180
:10295000CF911F910F91FF90EF90DF90CF90BF909C
:10296000AF909F908F907F906F905F904F90089561
:102970000C94CD13FC01808191810C945E18CF934F
:10298000DF93EC0188819981009711F00E945E1815
:10299000198218821D821C821B821A82DF91CF91BC
:1029A00008950F931F93CF93DF93EC018B016F5F1B
:1029B0007F4F888199810E94ED18009731F09983AB
:1029C00088831B830A8381E001C080E0DF91CF917F
:1029D0001F910F910895CF93DF93EC018881998126
:1029E000892B29F08A819B818617970760F4CE0195
:1029F0000E94D114882341F08C819D81892B19F488
:102A0000E881F981108281E0DF91CF910895EF9202
:102A1000FF920F931F93CF93DF93EC017B018A0109
:102A2000BA010E94EB14811104C0CE010E94BF14B0
:102A300007C01D830C83B701888199810E94DF192B
:102A4000CE01DF91CF911F910F91FF90EF900895EC
:102A5000FC01118210821382128215821482611588
:102A6000710559F0FB0101900020E9F7AF014150D9
:102A70005109461B570B0C9407150895EF92FF92CE
:102A80000F931F93CF93DF93EC017B010C811D818A
:102A90006115710511F480E016C04115510591F0E2
:102AA000040F151FB8010E94EB148823A1F328819D
:102AB00039818C819D81B701820F931F0E94DF199C
:102AC0001D830C8381E0DF91CF911F910F91FF90C7
:102AD000EF9008956115710559F0FB0101900020F8
:102AE000E9F7AF0141505109461B570B0C943E15B5
:102AF00080E0089508955058BB27AA270ED075C1CD
:102B000066D130F06BD120F031F49F3F11F41EF408
:102B10005BC10EF4E095E7FB51C1E92F77D180F35B
:102B2000BA17620773078407950718F071F49EF5CA
:102B30008FC10EF4E0950B2EBA2FA02D0B01B90119
:102B400090010C01CA01A0011124FF27591B99F023
:102B5000593F50F4503E68F11A16F040A22F232F2F
:102B6000342F4427585FF3CF469537952795A7957F
:102B7000F0405395C9F77EF41F16BA0B620B730B26
:102B8000840BBAF09150A1F0FF0FBB1F661F771F97
:102B9000881FC2F70EC0BA0F621F731F841F48F44C
:102BA000879577956795B795F7959E3F08F0B3CFD2
:102BB0009395880F08F09927EE0F979587950895BC
:102BC000D9D008F481E008950CD00FC107D140F0AE
:102BD000FED030F021F45F3F19F0F0C0511139C13F
:102BE000F3C014D198F39923C9F35523B1F3951B7E
:102BF000550BBB27AA2762177307840738F09F5F1E
:102C00005F4F220F331F441FAA1FA9F333D00E2E8C
:102C10003AF0E0E830D091505040E695001CCAF7F9
:102C200029D0FE2F27D0660F771F881FBB1F2617BE
:102C300037074807AB07B0E809F0BB0B802DBF0191
:102C4000FF2793585F4F2AF09E3F510568F0B6C0AA
:102C500000C15F3FECF3983EDCF38695779567956E
:102C6000B795F7959F5FC9F7880F911D9695879542
:102C700097F90895E1E0660F771F881FBB1F621761
:102C800073078407BA0720F0621B730B840BBA0B1F
:102C9000EE1F88F7E095089504D06894B111D9C06B
:102CA0000895BCD088F09F5790F0B92F9927B7515D
:102CB000A0F0D1F0660F771F881F991F1AF0BA9500
:102CC000C9F712C0B13081F0C3D0B1E00895C0C0DF
:102CD000672F782F8827B85F39F0B93FCCF38695F6
:102CE00077956795B395D9F73EF490958095709553
:102CF00061957F4F8F4F9F4F0895E89409C097FBD0
:102D00003EF490958095709561957F4F8F4F9F4FC2
:102D10009923A9F0F92F96E9BB279395F695879506
:102D200077956795B795F111F8CFFAF4BB0F11F4C9
:102D300060FF1BC06F5F7F4F8F4F9F4F16C0882370
:102D400011F096E911C0772321F09EE8872F762FA6
:102D500005C0662371F096E8862F70E060E02AF0E7
:102D60009A95660F771F881FDAF7880F96958795D3
:102D700097F90895990F0008550FAA0BE0E8FEEFA8
:102D800016161706E807F907C0F012161306E4072F
:102D9000F50798F0621B730B840B950B39F40A2628
:102DA00061F0232B242B252B21F408950A2609F406
:102DB000A140A6958FEF811D811D089597F99F670A
:102DC00080E870E060E008959FEF80EC08950024B3
:102DD0000A941616170618060906089500240A9480
:102DE00012161306140605060895092E0394000C06
:102DF00011F4882352F0BB0F40F4BF2B11F460FF95
:102E000004C06F5F7F4F8F4F9F4F089557FD9058BD
:102E1000440F551F59F05F3F71F04795880F97FB9E
:102E2000991F61F09F3F79F0879508951216130658
:102E30001406551FF2CF4695F1DF08C01616170687
:102E40001806991FF1CF86957105610508940895BC
:102E5000E894BB2766277727CB0197F908958ADF87
:102E600008F48FEF08950BD0C0CFB1DF28F0B6DFA4
:102E700018F0952309F0A2CFA7CF1124EACFC6DF1F
:102E8000A0F3959FD1F3950F50E0551F629FF0017D
:102E9000729FBB27F00DB11D639FAA27F00DB11DD6
:102EA000AA1F649F6627B00DA11D661F829F22275F
:102EB000B00DA11D621F739FB00DA11D621F839FE6
:102EC000A00D611D221F749F3327A00D611D231FBC
:102ED000849F600D211D822F762F6A2F11249F570A
:102EE00050408AF0E1F088234AF0EE0FFF1FBB1F2D
:102EF000661F771F881F91505040A9F79E3F5105CC
:102F000070F05CCFA6CF5F3FECF3983EDCF3869584
:102F100077956795B795F795E7959F5FC1F7FE2B76
:102F2000880F911D9695879597F9089523DF880B53
:102F3000990B0895A1E21A2EAA1BBB1BFD010DC01F
:102F4000AA1FBB1FEE1FFF1FA217B307E407F50759
:102F500020F0A21BB30BE40BF50B661F771F881F35
:102F6000991F1A9469F760957095809590959B01CB
:102F7000AC01BD01CF010895EE0FFF1F0590F49144
:102F8000E02D19940790F691E02D1994CF93DF93DB
:102F90008230910510F482E090E0E0913506F091E6
:102FA000360620E030E0A0E0B0E0309739F1408113
:102FB000518148175907B8F04817590771F48281B1
:102FC0009381109729F013969C938E9312972CC09F
:102FD000909336068093350627C02115310531F0D0
:102FE0004217530718F0A901DB0101C0EF019A0154
:102FF000BD01DF010280F381E02DD7CF211531051E
:10300000F9F0281B390B2430310580F48A819B812B
:103010006115710521F0FB019383828304C09093B5
:10302000360680933506FE01329644C0FE01E20F5B
:10303000F31F8193919322503109398328833AC039
:103040002091330630913406232B41F42091020263
:10305000309103023093340620933306209100020E
:10306000309101022115310541F42DB73EB7409151
:10307000040250910502241B350BE0913306F091B8
:103080003406E217F307A0F42E1B3F0B281739076D
:1030900078F0AC014E5F5F4F2417350748F04E0FB4
:1030A0005F1F50933406409333068193919302C07F
:1030B000E0E0F0E0CF01DF91CF910895CF93DF936F
:1030C000009709F487C0FC01329713821282C091E5
:1030D0003506D0913606209781F420813181280F62
:1030E000391F80913306909134068217930779F542
:1030F000F0933406E09333066DC0DE0120E030E04B
:10310000AE17BF0750F412964D915C9113979D0135
:103110004115510509F1DA01F3CFB383A283408150
:103120005181840F951F8A179B0771F48D919C9193
:103130001197840F951F02969183808312968D912B
:103140009C911397938382832115310529F4F09381
:103150003606E09335063EC0D9011396FC93EE93F4
:1031600012974D915D91A40FB51FEA17FB0779F4F3
:1031700080819181840F951F0296D90111969C93AD
:103180008E938281938113969C938E931297E0E0A5
:10319000F0E08A819B81009719F0FE01EC01F9CFE4
:1031A000CE01029628813981820F931F2091330628
:1031B000309134062817390769F4309729F41092B2
:1031C00036061092350602C013821282D09334065E
:1031D000C0933306DF91CF9108956F927F928F92C3
:1031E0009F92AF92BF92CF92DF92EF92FF920F9396
:1031F0001F93CF93DF93EC01CB01209781F4DF91F4
:10320000CF911F910F91FF90EF90DF90CF90BF90E3
:10321000AF909F908F907F906F900C94C617FE0197
:10322000E60FF71F9E0122503109E217F30708F459
:10323000ACC0D9010D911C91119706171707B8F072
:103240000530110508F49FC0A801445051094617E4
:10325000570708F498C002501109061B170B019379
:1032600011936D937C93CF010E945E188CC05B011B
:10327000A01AB10A4E01800E911EA0913506B091A0
:103280003606612C712C60E070E0109709F449C09B
:10329000A815B905C9F5ED90FC901197670142E0BA
:1032A000C40ED11CCA14DB0478F147018A189B08AC
:1032B000640142E0C40ED11C1296BC901297139682
:1032C000AC91B5E0CB16D10440F0B282A3839182D9
:1032D0008082D9018D939C9309C00E5F1F4F0E0D04
:1032E0001F1DF90111830083EB2DFA2F6115710564
:1032F00031F0DB011396FC93EE93129744C0F093E8
:103300003606E09335063FC06D917C9111976616A5
:10331000770608F43B01BD0112960D90BC91A02DDB
:10332000B4CF609133067091340668157905E9F4DD
:1033300068167906D0F440910002509101024115BF
:10334000510541F44DB75EB76091040270910502DA
:10335000461B570BE417F507C0F4F0933406E093CF
:103360003306F901918380830EC00E94C6177C0149
:10337000009759F0A801BE010E94D619CE010E9403
:103380005E18C70104C0CE0102C080E090E0DF916A
:10339000CF911F910F91FF90EF90DF90CF90BF9052
:1033A000AF909F908F907F906F900895FB01DC010C
:1033B00002C001900D9241505040D8F70895FB0192
:1033C000DC0101900D920020E1F70895F894FFCF01
:1033D0000000370680000101100020001E001C00C4
:1033E0001A0043004200410040003F003E005000F0
:1033F00064003200000001747275650066616C73D0
:1034000065007B002267656172506F736974696F34
:103410006E223A2200222C00226261747465727955
:103420004C6576656C223A22002272616E676522D5
:103430003A220022706F776572223A22002272656A
:10344000674272616B696E67223A220022656B6F78
:103450004D6F6465223A22002274696D6554696C6F
:103460006C46756C6C223A2200226368617267694F
:103470006E67223A220022646F6F72536166657430
:1034800079223A220022656D657267656E63794222
:103490007574746F6E223A2200227D00426174744A
:1034A000657279206E6F74206465746563746564F9
:1034B0002E2000436F6D6D756E69636174696F6E68
:1034C0002074696D656F75742E2000496E70757477
:1034D00020766F6C74616765207761726E696E67C4
:1034E0002E200054656D7065726174757265207769
:1034F00061726E696E672E20004861726477617236
:1035000065206661696C7572652E20004368617282
:1035100067696E6720746F203131372E3556204031
:10352000203841206D6178004368617267696E6779
:1035300020746F20313038562040203541206D6195
:1035400078005662617474203D200020562C20497A
:10355000203D200020412C20737461747573203D40
:1035600020000000000064109512B70FD00FC20FAA
:1035700042106E616E00696E66006F7666002E0006
:00000001FF
